{
    "contractName": "Fundraiser",
    "abi": [
        {
            "inputs": [
                {
                    "internalType": "address",
                    "name": "custodian",
                    "type": "address"
                },
                {
                    "internalType": "address payable",
                    "name": "beneficiary",
                    "type": "address"
                },
                {
                    "internalType": "string",
                    "name": "name",
                    "type": "string"
                },
                {
                    "internalType": "string",
                    "name": "description",
                    "type": "string"
                },
                {
                    "internalType": "string",
                    "name": "website",
                    "type": "string"
                },
                {
                    "internalType": "string",
                    "name": "thumbnail",
                    "type": "string"
                }
            ],
            "stateMutability": "nonpayable",
            "type": "constructor"
        },
        {
            "anonymous": false,
            "inputs": [
                {
                    "indexed": true,
                    "internalType": "address",
                    "name": "beneficiaryOld",
                    "type": "address"
                },
                {
                    "indexed": true,
                    "internalType": "address",
                    "name": "beneficiaryNew",
                    "type": "address"
                }
            ],
            "name": "BeneficiaryChanged",
            "type": "event"
        },
        {
            "anonymous": false,
            "inputs": [
                {
                    "indexed": true,
                    "internalType": "address",
                    "name": "philanthropist",
                    "type": "address"
                },
                {
                    "indexed": false,
                    "internalType": "uint256",
                    "name": "amount",
                    "type": "uint256"
                }
            ],
            "name": "DonationReceived",
            "type": "event"
        },
        {
            "anonymous": false,
            "inputs": [
                {
                    "indexed": true,
                    "internalType": "address",
                    "name": "previousOwner",
                    "type": "address"
                },
                {
                    "indexed": true,
                    "internalType": "address",
                    "name": "newOwner",
                    "type": "address"
                }
            ],
            "name": "OwnershipTransferred",
            "type": "event"
        },
        {
            "anonymous": false,
            "inputs": [
                {
                    "indexed": false,
                    "internalType": "address",
                    "name": "account",
                    "type": "address"
                }
            ],
            "name": "Paused",
            "type": "event"
        },
        {
            "anonymous": false,
            "inputs": [
                {
                    "indexed": false,
                    "internalType": "uint256",
                    "name": "amount",
                    "type": "uint256"
                }
            ],
            "name": "TransferredToBeneficiary",
            "type": "event"
        },
        {
            "anonymous": false,
            "inputs": [
                {
                    "indexed": false,
                    "internalType": "address",
                    "name": "account",
                    "type": "address"
                }
            ],
            "name": "Unpaused",
            "type": "event"
        },
        {
            "stateMutability": "payable",
            "type": "fallback"
        },
        {
            "inputs": [],
            "name": "details",
            "outputs": [
                {
                    "internalType": "address payable",
                    "name": "beneficiary",
                    "type": "address"
                },
                {
                    "internalType": "string",
                    "name": "name",
                    "type": "string"
                },
                {
                    "internalType": "string",
                    "name": "description",
                    "type": "string"
                },
                {
                    "internalType": "string",
                    "name": "website",
                    "type": "string"
                },
                {
                    "internalType": "string",
                    "name": "thumbnail",
                    "type": "string"
                }
            ],
            "stateMutability": "view",
            "type": "function"
        },
        {
            "inputs": [],
            "name": "owner",
            "outputs": [
                {
                    "internalType": "address",
                    "name": "",
                    "type": "address"
                }
            ],
            "stateMutability": "view",
            "type": "function"
        },
        {
            "inputs": [],
            "name": "paused",
            "outputs": [
                {
                    "internalType": "bool",
                    "name": "",
                    "type": "bool"
                }
            ],
            "stateMutability": "view",
            "type": "function"
        },
        {
            "inputs": [],
            "name": "renounceOwnership",
            "outputs": [],
            "stateMutability": "nonpayable",
            "type": "function"
        },
        {
            "inputs": [
                {
                    "internalType": "address",
                    "name": "newOwner",
                    "type": "address"
                }
            ],
            "name": "transferOwnership",
            "outputs": [],
            "stateMutability": "nonpayable",
            "type": "function"
        },
        {
            "stateMutability": "payable",
            "type": "receive"
        },
        {
            "inputs": [],
            "name": "getCustodian",
            "outputs": [
                {
                    "internalType": "address",
                    "name": "",
                    "type": "address"
                }
            ],
            "stateMutability": "view",
            "type": "function"
        },
        {
            "inputs": [],
            "name": "getBeneficiary",
            "outputs": [
                {
                    "internalType": "address",
                    "name": "",
                    "type": "address"
                }
            ],
            "stateMutability": "view",
            "type": "function"
        },
        {
            "inputs": [
                {
                    "internalType": "address payable",
                    "name": "beneficiaryNew",
                    "type": "address"
                }
            ],
            "name": "setBeneficiary",
            "outputs": [],
            "stateMutability": "nonpayable",
            "type": "function"
        },
        {
            "inputs": [],
            "name": "raised",
            "outputs": [
                {
                    "internalType": "uint256",
                    "name": "",
                    "type": "uint256"
                }
            ],
            "stateMutability": "view",
            "type": "function"
        },
        {
            "inputs": [],
            "name": "count",
            "outputs": [
                {
                    "internalType": "uint256",
                    "name": "",
                    "type": "uint256"
                }
            ],
            "stateMutability": "view",
            "type": "function"
        },
        {
            "inputs": [],
            "name": "myRaised",
            "outputs": [
                {
                    "internalType": "uint256",
                    "name": "",
                    "type": "uint256"
                }
            ],
            "stateMutability": "view",
            "type": "function"
        },
        {
            "inputs": [],
            "name": "myCount",
            "outputs": [
                {
                    "internalType": "uint256",
                    "name": "",
                    "type": "uint256"
                }
            ],
            "stateMutability": "view",
            "type": "function"
        },
        {
            "inputs": [],
            "name": "myDonations",
            "outputs": [
                {
                    "components": [
                        {
                            "internalType": "uint256",
                            "name": "amount",
                            "type": "uint256"
                        },
                        {
                            "internalType": "uint256",
                            "name": "timestamp",
                            "type": "uint256"
                        }
                    ],
                    "internalType": "struct Fundraiser.Donation[]",
                    "name": "",
                    "type": "tuple[]"
                }
            ],
            "stateMutability": "view",
            "type": "function"
        },
        {
            "inputs": [],
            "name": "donate",
            "outputs": [],
            "stateMutability": "payable",
            "type": "function"
        },
        {
            "inputs": [],
            "name": "withdraw",
            "outputs": [],
            "stateMutability": "nonpayable",
            "type": "function"
        },
        {
            "inputs": [],
            "name": "pause",
            "outputs": [],
            "stateMutability": "nonpayable",
            "type": "function"
        },
        {
            "inputs": [],
            "name": "unpause",
            "outputs": [],
            "stateMutability": "nonpayable",
            "type": "function"
        }
    ],
    "bytecode": "0x60806040523480156200001157600080fd5b50604051620023de380380620023de833981810160405281019062000037919062000435565b620000576200004b6200012c60201b60201c565b6200013460201b60201c565b60008060146101000a81548160ff0219169083151502179055506001808190555062000089866200013460201b60201c565b84600260000160006101000a81548173ffffffffffffffffffffffffffffffffffffffff021916908373ffffffffffffffffffffffffffffffffffffffff1602179055508360026001019081620000e1919062000798565b5082600280019081620000f5919062000798565b5081600260030190816200010a919062000798565b5080600260040190816200011f919062000798565b505050505050506200087f565b600033905090565b60008060009054906101000a900473ffffffffffffffffffffffffffffffffffffffff169050816000806101000a81548173ffffffffffffffffffffffffffffffffffffffff021916908373ffffffffffffffffffffffffffffffffffffffff1602179055508173ffffffffffffffffffffffffffffffffffffffff168173ffffffffffffffffffffffffffffffffffffffff167f8be0079c531659141344cd1fd0a4f28419497f9722a3daafe3b4186f6b6457e060405160405180910390a35050565b6000604051905090565b600080fd5b600080fd5b600073ffffffffffffffffffffffffffffffffffffffff82169050919050565b600062000239826200020c565b9050919050565b6200024b816200022c565b81146200025757600080fd5b50565b6000815190506200026b8162000240565b92915050565b60006200027e826200020c565b9050919050565b620002908162000271565b81146200029c57600080fd5b50565b600081519050620002b08162000285565b92915050565b600080fd5b600080fd5b6000601f19601f8301169050919050565b7f4e487b7100000000000000000000000000000000000000000000000000000000600052604160045260246000fd5b6200030b82620002c0565b810181811067ffffffffffffffff821117156200032d576200032c620002d1565b5b80604052505050565b600062000342620001f8565b905062000350828262000300565b919050565b600067ffffffffffffffff821115620003735762000372620002d1565b5b6200037e82620002c0565b9050602081019050919050565b60005b83811015620003ab5780820151818401526020810190506200038e565b60008484015250505050565b6000620003ce620003c88462000355565b62000336565b905082815260208101848484011115620003ed57620003ec620002bb565b5b620003fa8482856200038b565b509392505050565b600082601f8301126200041a5762000419620002b6565b5b81516200042c848260208601620003b7565b91505092915050565b60008060008060008060c0878903121562000455576200045462000202565b5b60006200046589828a016200025a565b96505060206200047889828a016200029f565b955050604087015167ffffffffffffffff8111156200049c576200049b62000207565b5b620004aa89828a0162000402565b945050606087015167ffffffffffffffff811115620004ce57620004cd62000207565b5b620004dc89828a0162000402565b935050608087015167ffffffffffffffff8111156200050057620004ff62000207565b5b6200050e89828a0162000402565b92505060a087015167ffffffffffffffff81111562000532576200053162000207565b5b6200054089828a0162000402565b9150509295509295509295565b600081519050919050565b7f4e487b7100000000000000000000000000000000000000000000000000000000600052602260045260246000fd5b60006002820490506001821680620005a057607f821691505b602082108103620005b657620005b562000558565b5b50919050565b60008190508160005260206000209050919050565b60006020601f8301049050919050565b600082821b905092915050565b600060088302620006207fffffffffffffffffffffffffffffffffffffffffffffffffffffffffffffffff82620005e1565b6200062c8683620005e1565b95508019841693508086168417925050509392505050565b6000819050919050565b6000819050919050565b600062000679620006736200066d8462000644565b6200064e565b62000644565b9050919050565b6000819050919050565b620006958362000658565b620006ad620006a48262000680565b848454620005ee565b825550505050565b600090565b620006c4620006b5565b620006d18184846200068a565b505050565b5b81811015620006f957620006ed600082620006ba565b600181019050620006d7565b5050565b601f82111562000748576200071281620005bc565b6200071d84620005d1565b810160208510156200072d578190505b620007456200073c85620005d1565b830182620006d6565b50505b505050565b600082821c905092915050565b60006200076d600019846008026200074d565b1980831691505092915050565b60006200078883836200075a565b9150826002028217905092915050565b620007a3826200054d565b67ffffffffffffffff811115620007bf57620007be620002d1565b5b620007cb825462000587565b620007d8828285620006fd565b600060209050601f831160018114620008105760008415620007fb578287015190505b6200080785826200077a565b86555062000877565b601f1984166200082086620005bc565b60005b828110156200084a5784890151825560018201915060208501945060208101905062000823565b868310156200086a578489015162000866601f8916826200075a565b8355505b6001600288020188555050505b505050505050565b611b4f806200088f6000396000f3fe6080604052600436106101025760003560e01c80635c975abb116100955780638da5cb5b116100645780638da5cb5b14610333578063c561d4b71461035e578063ed88c68e14610389578063f0ea4bfc14610393578063f2fde38b146103be57610142565b80635c975abb146102af578063715018a6146102da5780638456cb59146102f15780638ce79b6e1461030857610142565b80633f4ba83a116100d15780633f4ba83a14610213578063565974d31461022a578063565a2e2c1461025957806357c357401461028457610142565b806306661abd1461017d5780631a57f7b4146101a85780631c31f710146101d35780633ccfd60b146101fc57610142565b36610142576040517f08c379a000000000000000000000000000000000000000000000000000000000815260040161013990611117565b60405180910390fd5b6040517f08c379a0000000000000000000000000000000000000000000000000000000008152600401610174906111a9565b60405180910390fd5b34801561018957600080fd5b506101926103e7565b60405161019f91906111e2565b60405180910390f35b3480156101b457600080fd5b506101bd6103f4565b6040516101ca91906112ea565b60405180910390f35b3480156101df57600080fd5b506101fa60048036038101906101f5919061136f565b6104a4565b005b34801561020857600080fd5b506102116105e3565b005b34801561021f57600080fd5b50610228610749565b005b34801561023657600080fd5b5061023f61075b565b60405161025095949392919061142a565b60405180910390f35b34801561026557600080fd5b5061026e6109bf565b60405161027b91906114ba565b60405180910390f35b34801561029057600080fd5b506102996109ec565b6040516102a691906111e2565b60405180910390f35b3480156102bb57600080fd5b506102c4610a36565b6040516102d191906114f0565b60405180910390f35b3480156102e657600080fd5b506102ef610a4c565b005b3480156102fd57600080fd5b50610306610a60565b005b34801561031457600080fd5b5061031d610a72565b60405161032a91906111e2565b60405180910390f35b34801561033f57600080fd5b50610348610abc565b60405161035591906114ba565b60405180910390f35b34801561036a57600080fd5b50610373610ae5565b60405161038091906114ba565b60405180910390f35b610391610af4565b005b34801561039f57600080fd5b506103a8610d0a565b6040516103b591906111e2565b60405180910390f35b3480156103ca57600080fd5b506103e560048036038101906103e09190611537565b610d17565b005b6000600760010154905090565b6060600a60003373ffffffffffffffffffffffffffffffffffffffff1673ffffffffffffffffffffffffffffffffffffffff168152602001908152602001600020805480602002602001604051908101604052809291908181526020016000905b8282101561049b57838290600052602060002090600202016040518060400160405290816000820154815260200160018201548152505081526020019060010190610455565b50505050905090565b6104ac610d9a565b80600073ffffffffffffffffffffffffffffffffffffffff168173ffffffffffffffffffffffffffffffffffffffff160361051c576040517f08c379a0000000000000000000000000000000000000000000000000000000008152600401610513906115d6565b60405180910390fd5b8173ffffffffffffffffffffffffffffffffffffffff16600260000160009054906101000a900473ffffffffffffffffffffffffffffffffffffffff1673ffffffffffffffffffffffffffffffffffffffff167f768099735d1c322a05a5b9d7b76d99682a1833d3f7055e5ede25e0f2eeaa8c6d60405160405180910390a381600260000160006101000a81548173ffffffffffffffffffffffffffffffffffffffff021916908373ffffffffffffffffffffffffffffffffffffffff1602179055505050565b6105eb610d9a565b6000471161062e576040517f08c379a000000000000000000000000000000000000000000000000000000000815260040161062590611668565b60405180910390fd5b610636610e18565b7f8d02447a0411411231cc3847790555d8c57378b38e00b48aa0bf8b97f602b5344760405161066591906111e2565b60405180910390a16000600260000160009054906101000a900473ffffffffffffffffffffffffffffffffffffffff1673ffffffffffffffffffffffffffffffffffffffff16476040516106b8906116b9565b60006040518083038185875af1925050503d80600081146106f5576040519150601f19603f3d011682016040523d82523d6000602084013e6106fa565b606091505b505090508061073e576040517f08c379a00000000000000000000000000000000000000000000000000000000081526004016107359061171a565b60405180910390fd5b50610747610e67565b565b610751610d9a565b610759610e70565b565b60028060000160009054906101000a900473ffffffffffffffffffffffffffffffffffffffff169080600101805461079290611769565b80601f01602080910402602001604051908101604052809291908181526020018280546107be90611769565b801561080b5780601f106107e05761010080835404028352916020019161080b565b820191906000526020600020905b8154815290600101906020018083116107ee57829003601f168201915b50505050509080600201805461082090611769565b80601f016020809104026020016040519081016040528092919081815260200182805461084c90611769565b80156108995780601f1061086e57610100808354040283529160200191610899565b820191906000526020600020905b81548152906001019060200180831161087c57829003601f168201915b5050505050908060030180546108ae90611769565b80601f01602080910402602001604051908101604052809291908181526020018280546108da90611769565b80156109275780601f106108fc57610100808354040283529160200191610927565b820191906000526020600020905b81548152906001019060200180831161090a57829003601f168201915b50505050509080600401805461093c90611769565b80601f016020809104026020016040519081016040528092919081815260200182805461096890611769565b80156109b55780601f1061098a576101008083540402835291602001916109b5565b820191906000526020600020905b81548152906001019060200180831161099857829003601f168201915b5050505050905085565b6000600260000160009054906101000a900473ffffffffffffffffffffffffffffffffffffffff16905090565b6000600960003373ffffffffffffffffffffffffffffffffffffffff1673ffffffffffffffffffffffffffffffffffffffff16815260200190815260200160002060010154905090565b60008060149054906101000a900460ff16905090565b610a54610d9a565b610a5e6000610ed2565b565b610a68610d9a565b610a70610f96565b565b6000600960003373ffffffffffffffffffffffffffffffffffffffff1673ffffffffffffffffffffffffffffffffffffffff16815260200190815260200160002060000154905090565b60008060009054906101000a900473ffffffffffffffffffffffffffffffffffffffff16905090565b6000610aef610abc565b905090565b610afc610ff9565b60003411610b3f576040517f08c379a0000000000000000000000000000000000000000000000000000000008152600401610b369061180c565b60405180910390fd5b3373ffffffffffffffffffffffffffffffffffffffff167f264f630d9efa0d07053a31163641d9fcc0adafc9d9e76f1c37c2ce3a558d2c5234604051610b8591906111e2565b60405180910390a23460076000016000828254610ba2919061185b565b9250508190555060076001016000815480929190610bbf9061188f565b919050555034600960003373ffffffffffffffffffffffffffffffffffffffff1673ffffffffffffffffffffffffffffffffffffffff1681526020019081526020016000206000016000828254610c16919061185b565b92505081905550600960003373ffffffffffffffffffffffffffffffffffffffff1673ffffffffffffffffffffffffffffffffffffffff1681526020019081526020016000206001016000815480929190610c709061188f565b9190505550600a60003373ffffffffffffffffffffffffffffffffffffffff1673ffffffffffffffffffffffffffffffffffffffff168152602001908152602001600020604051806040016040528034815260200142815250908060018154018082558091505060019003906000526020600020906002020160009091909190915060008201518160000155602082015181600101555050565b6000600760000154905090565b610d1f610d9a565b600073ffffffffffffffffffffffffffffffffffffffff168173ffffffffffffffffffffffffffffffffffffffff1603610d8e576040517f08c379a0000000000000000000000000000000000000000000000000000000008152600401610d8590611949565b60405180910390fd5b610d9781610ed2565b50565b610da2611043565b73ffffffffffffffffffffffffffffffffffffffff16610dc0610abc565b73ffffffffffffffffffffffffffffffffffffffff1614610e16576040517f08c379a0000000000000000000000000000000000000000000000000000000008152600401610e0d906119b5565b60405180910390fd5b565b600260015403610e5d576040517f08c379a0000000000000000000000000000000000000000000000000000000008152600401610e5490611a21565b60405180910390fd5b6002600181905550565b60018081905550565b610e7861104b565b60008060146101000a81548160ff0219169083151502179055507f5db9ee0a495bf2e6ff9c91a7834c1ba4fdd244a5e8aa4e537bd38aeae4b073aa610ebb611043565b604051610ec891906114ba565b60405180910390a1565b60008060009054906101000a900473ffffffffffffffffffffffffffffffffffffffff169050816000806101000a81548173ffffffffffffffffffffffffffffffffffffffff021916908373ffffffffffffffffffffffffffffffffffffffff1602179055508173ffffffffffffffffffffffffffffffffffffffff168173ffffffffffffffffffffffffffffffffffffffff167f8be0079c531659141344cd1fd0a4f28419497f9722a3daafe3b4186f6b6457e060405160405180910390a35050565b610f9e610ff9565b6001600060146101000a81548160ff0219169083151502179055507f62e78cea01bee320cd4e420270b5ea74000d11b0c9f74754ebdbfc544b05a258610fe2611043565b604051610fef91906114ba565b60405180910390a1565b611001610a36565b15611041576040517f08c379a000000000000000000000000000000000000000000000000000000000815260040161103890611a8d565b60405180910390fd5b565b600033905090565b611053610a36565b611092576040517f08c379a000000000000000000000000000000000000000000000000000000000815260040161108990611af9565b60405180910390fd5b565b600082825260208201905092915050565b7f7265636569766528292069732064697361626c65642c20706c6561736520757360008201527f6520646f6e61746528292e000000000000000000000000000000000000000000602082015250565b6000611101602b83611094565b915061110c826110a5565b604082019050919050565b60006020820190508181036000830152611130816110f4565b9050919050565b7f66616c6c6261636b28292069732064697361626c65642c20706c65617365207560008201527f736520646f6e61746528292e0000000000000000000000000000000000000000602082015250565b6000611193602c83611094565b915061119e82611137565b604082019050919050565b600060208201905081810360008301526111c281611186565b9050919050565b6000819050919050565b6111dc816111c9565b82525050565b60006020820190506111f760008301846111d3565b92915050565b600081519050919050565b600082825260208201905092915050565b6000819050602082019050919050565b611232816111c9565b82525050565b60408201600082015161124e6000850182611229565b5060208201516112616020850182611229565b50505050565b60006112738383611238565b60408301905092915050565b6000602082019050919050565b6000611297826111fd565b6112a18185611208565b93506112ac83611219565b8060005b838110156112dd5781516112c48882611267565b97506112cf8361127f565b9250506001810190506112b0565b5085935050505092915050565b60006020820190508181036000830152611304818461128c565b905092915050565b600080fd5b600073ffffffffffffffffffffffffffffffffffffffff82169050919050565b600061133c82611311565b9050919050565b61134c81611331565b811461135757600080fd5b50565b60008135905061136981611343565b92915050565b6000602082840312156113855761138461130c565b5b60006113938482850161135a565b91505092915050565b6113a581611331565b82525050565b600081519050919050565b60005b838110156113d45780820151818401526020810190506113b9565b60008484015250505050565b6000601f19601f8301169050919050565b60006113fc826113ab565b6114068185611094565b93506114168185602086016113b6565b61141f816113e0565b840191505092915050565b600060a08201905061143f600083018861139c565b818103602083015261145181876113f1565b9050818103604083015261146581866113f1565b9050818103606083015261147981856113f1565b9050818103608083015261148d81846113f1565b90509695505050505050565b60006114a482611311565b9050919050565b6114b481611499565b82525050565b60006020820190506114cf60008301846114ab565b92915050565b60008115159050919050565b6114ea816114d5565b82525050565b600060208201905061150560008301846114e1565b92915050565b61151481611499565b811461151f57600080fd5b50565b6000813590506115318161150b565b92915050565b60006020828403121561154d5761154c61130c565b5b600061155b84828501611522565b91505092915050565b7f41646472657373206d757374206e6f74206265207a65726f206164647265737360008201527f2e00000000000000000000000000000000000000000000000000000000000000602082015250565b60006115c0602183611094565b91506115cb82611564565b604082019050919050565b600060208201905081810360008301526115ef816115b3565b9050919050565b7f53656e6420616d6f756e74206d75737420626520677261746572207468616e2060008201527f7a65726f2e000000000000000000000000000000000000000000000000000000602082015250565b6000611652602583611094565b915061165d826115f6565b604082019050919050565b6000602082019050818103600083015261168181611645565b9050919050565b600081905092915050565b50565b60006116a3600083611688565b91506116ae82611693565b600082019050919050565b60006116c482611696565b9150819050919050565b7f5472616e73666572206661696c65642e00000000000000000000000000000000600082015250565b6000611704601083611094565b915061170f826116ce565b602082019050919050565b60006020820190508181036000830152611733816116f7565b9050919050565b7f4e487b7100000000000000000000000000000000000000000000000000000000600052602260045260246000fd5b6000600282049050600182168061178157607f821691505b6020821081036117945761179361173a565b5b50919050565b7f5265636965766520616d6f756e74206d7573742062652067726174657220746860008201527f616e207a65726f2e000000000000000000000000000000000000000000000000602082015250565b60006117f6602883611094565b91506118018261179a565b604082019050919050565b60006020820190508181036000830152611825816117e9565b9050919050565b7f4e487b7100000000000000000000000000000000000000000000000000000000600052601160045260246000fd5b6000611866826111c9565b9150611871836111c9565b92508282019050808211156118895761188861182c565b5b92915050565b600061189a826111c9565b91507fffffffffffffffffffffffffffffffffffffffffffffffffffffffffffffffff82036118cc576118cb61182c565b5b600182019050919050565b7f4f776e61626c653a206e6577206f776e657220697320746865207a65726f206160008201527f6464726573730000000000000000000000000000000000000000000000000000602082015250565b6000611933602683611094565b915061193e826118d7565b604082019050919050565b6000602082019050818103600083015261196281611926565b9050919050565b7f4f776e61626c653a2063616c6c6572206973206e6f7420746865206f776e6572600082015250565b600061199f602083611094565b91506119aa82611969565b602082019050919050565b600060208201905081810360008301526119ce81611992565b9050919050565b7f5265656e7472616e637947756172643a207265656e7472616e742063616c6c00600082015250565b6000611a0b601f83611094565b9150611a16826119d5565b602082019050919050565b60006020820190508181036000830152611a3a816119fe565b9050919050565b7f5061757361626c653a2070617573656400000000000000000000000000000000600082015250565b6000611a77601083611094565b9150611a8282611a41565b602082019050919050565b60006020820190508181036000830152611aa681611a6a565b9050919050565b7f5061757361626c653a206e6f7420706175736564000000000000000000000000600082015250565b6000611ae3601483611094565b9150611aee82611aad565b602082019050919050565b60006020820190508181036000830152611b1281611ad6565b905091905056fea2646970667358221220fec18a1bcfd030651154b9b9da37d6c1034dede3810a295c20155a8d939054fa64736f6c63430008130033",
    "immutableReferences": {},
    "source": "// SPDX-License-Identifier: MIT\r\n// pragma solidity >=0.8.0 <=0.8.19; // NOTE: Contracts should be deployed with the same compiler version and flags that they have been tested the most with.\r\npragma solidity 0.8.19;\r\n\r\n// import \"../node_modules/@openzeppelin/contracts/utils/math/SafeMath.sol\";\r\nimport \"../node_modules/@openzeppelin/contracts/access/Ownable.sol\";\r\nimport \"../node_modules/@openzeppelin/contracts/security/Pausable.sol\";\r\nimport \"../node_modules/@openzeppelin/contracts/security/ReentrancyGuard.sol\";\r\n\r\ncontract Fundraiser is Ownable, Pausable, ReentrancyGuard {\r\n    // using SafeMath for uint256; // NOTE: Not needed in \"solidity >=0.8.0\".\r\n\r\n    // TO DO: Add more properties.\r\n    struct Details {\r\n        address payable beneficiary;\r\n        string name;\r\n        string description;\r\n        string website;\r\n        string thumbnail;\r\n    }\r\n    Details public details;\r\n\r\n    struct Total {\r\n        uint256 raised;\r\n        uint256 count;\r\n    }\r\n    Total private _combined;\r\n    mapping(address => Total) private _individuals;\r\n\r\n    // TO DO: Add more properties.\r\n    struct Donation {\r\n        uint256 amount;\r\n        uint256 timestamp;\r\n    }\r\n    mapping(address => Donation[]) private _donations;\r\n\r\n    event BeneficiaryChanged(address indexed beneficiaryOld, address indexed beneficiaryNew);\r\n    event DonationReceived(address indexed philanthropist, uint256 amount);\r\n    event TransferredToBeneficiary(uint256 amount);\r\n\r\n    // error BurnableAddress(); // NOTE: \"error\" costs less gas than \"require\".\r\n    // error ZeroReceive();\r\n    // error ZeroSend();\r\n\r\n    modifier nonBurnableAddress(address addr) {\r\n        // if (_address == address(0)) {\r\n        //     revert BurnableAddress();\r\n        // }\r\n        require(addr != address(0), \"Address must not be zero address.\");\r\n        _;\r\n    }\r\n\r\n    modifier nonZeroReceive() {\r\n        // if (msg.value > 0) {\r\n        //     revert ZeroReceive();\r\n        // }\r\n        require(msg.value > 0, \"Recieve amount must be grater than zero.\");\r\n        _;\r\n    }\r\n\r\n    modifier nonZeroSend() {\r\n        // if (msg.value > 0) {\r\n        //     revert ZeroSend();\r\n        // }\r\n        require(address(this).balance > 0, \"Send amount must be grater than zero.\");\r\n        _;\r\n    }\r\n\r\n    constructor(address custodian, address payable beneficiary, string memory name, string memory description, string memory website, string memory thumbnail) {\r\n        _transferOwnership(custodian); // from owner to custodian\r\n        details.beneficiary = beneficiary;\r\n        details.name = name;\r\n        details.description = description;\r\n        details.website = website;\r\n        details.thumbnail = thumbnail;\r\n    }\r\n\r\n    // NOTE: All methods are external and not public in order to reduce the gas cost.\r\n\r\n    function getCustodian() external view returns (address) {\r\n        return owner();\r\n    }\r\n\r\n    function getBeneficiary() external view returns (address) {\r\n        return details.beneficiary;\r\n    }\r\n\r\n    function setBeneficiary(address payable beneficiaryNew) external onlyOwner nonBurnableAddress(beneficiaryNew) {\r\n        emit BeneficiaryChanged(details.beneficiary, beneficiaryNew);\r\n        details.beneficiary = beneficiaryNew;\r\n    }\r\n\r\n    function raised() external view returns (uint256) {\r\n        return _combined.raised;\r\n    }\r\n\r\n    function count() external view returns (uint256) {\r\n        return _combined.count;\r\n    }\r\n\r\n    function myRaised() external view returns (uint256) {\r\n        return _individuals[msg.sender].raised;\r\n    }\r\n\r\n    function myCount() external view returns (uint256) {\r\n        return _individuals[msg.sender].count;\r\n    }\r\n\r\n    // TO DO: Make a pagination.\r\n    function myDonations() external view returns (Donation[] memory) {\r\n        return _donations[msg.sender];\r\n    }\r\n\r\n    function donate() external payable whenNotPaused nonZeroReceive {\r\n        emit DonationReceived(msg.sender, msg.value);\r\n        _combined.raised += msg.value;\r\n        _combined.count++;\r\n        _individuals[msg.sender].raised += msg.value;\r\n        _individuals[msg.sender].count++;\r\n        _donations[msg.sender].push(\r\n            Donation({\r\n                amount: msg.value,\r\n                timestamp: block.timestamp // NOTE: \"block.timestamp\" should not be trusted, but it does not matter for this kind of use.\r\n            })\r\n        );\r\n    }\r\n\r\n    receive() external payable {\r\n        revert(\"receive() is disabled, please use donate().\");\r\n    }\r\n\r\n    fallback() external payable {\r\n        revert(\"fallback() is disabled, please use donate().\");\r\n    }\r\n\r\n    function withdraw() external onlyOwner nonZeroSend nonReentrant {\r\n        emit TransferredToBeneficiary(address(this).balance);\r\n        // details.beneficiary.transfer(address(this).balance); // NOTE: \"transfer()\" should be avoided because the gas cost may change in the future causing a possible reentrancy attack.\r\n        (bool success, ) = details.beneficiary.call{ value: address(this).balance }(\"\");\r\n        require(success, \"Transfer failed.\");\r\n    }\r\n\r\n    function pause() external onlyOwner {\r\n        // selfdestruct(details.beneficiary); // NOTE: \"selfdestruct()\" should be avoided, use \"Pausable\" instead.\r\n        _pause();\r\n    }\r\n\r\n    function unpause() external onlyOwner {\r\n        _unpause();\r\n    }\r\n}\r\n",
    "sourcePath": "C:\\Users\\W11BB\\Desktop\\github_my\\solidity-learning\\Fundraiser\\truffle\\contracts\\Fundraiser.sol",
    "compiler": {
        "name": "solc",
        "version": "0.8.19+commit.7dd6d404.Emscripten.clang"
    },
    "schemaVersion": "3.4.16",
    "updatedAt": "2024-04-09T15:43:11.843Z",
    "devdoc": {
        "events": {
            "Paused(address)": {
                "details": "Emitted when the pause is triggered by `account`."
            },
            "Unpaused(address)": {
                "details": "Emitted when the pause is lifted by `account`."
            }
        },
        "kind": "dev",
        "methods": {
            "owner()": {
                "details": "Returns the address of the current owner."
            },
            "paused()": {
                "details": "Returns true if the contract is paused, and false otherwise."
            },
            "renounceOwnership()": {
                "details": "Leaves the contract without owner. It will not be possible to call `onlyOwner` functions. Can only be called by the current owner. NOTE: Renouncing ownership will leave the contract without an owner, thereby disabling any functionality that is only available to the owner."
            },
            "transferOwnership(address)": {
                "details": "Transfers ownership of the contract to a new account (`newOwner`). Can only be called by the current owner."
            }
        },
        "version": 1
    },
    "userdoc": {
        "kind": "user",
        "methods": {},
        "version": 1
    }
}