{
	"contractName": "Fundraiser",
	"abi": [
		{
			"inputs": [
				{
					"internalType": "address",
					"name": "_custodian",
					"type": "address"
				},
				{
					"internalType": "address payable",
					"name": "_beneficiary",
					"type": "address"
				},
				{
					"internalType": "string",
					"name": "_name",
					"type": "string"
				},
				{
					"internalType": "string",
					"name": "_description",
					"type": "string"
				},
				{
					"internalType": "string",
					"name": "_website",
					"type": "string"
				},
				{
					"internalType": "string",
					"name": "_thumbnail",
					"type": "string"
				}
			],
			"stateMutability": "nonpayable",
			"type": "constructor"
		},
		{
			"anonymous": false,
			"inputs": [
				{
					"indexed": true,
					"internalType": "address",
					"name": "_beneficiaryOld",
					"type": "address"
				},
				{
					"indexed": true,
					"internalType": "address",
					"name": "_beneficiaryNew",
					"type": "address"
				}
			],
			"name": "BeneficiaryChanged",
			"type": "event"
		},
		{
			"anonymous": false,
			"inputs": [
				{
					"indexed": true,
					"internalType": "address",
					"name": "_philanthropist",
					"type": "address"
				},
				{
					"indexed": false,
					"internalType": "uint256",
					"name": "_amount",
					"type": "uint256"
				}
			],
			"name": "DonationReceived",
			"type": "event"
		},
		{
			"anonymous": false,
			"inputs": [
				{
					"indexed": true,
					"internalType": "address",
					"name": "previousOwner",
					"type": "address"
				},
				{
					"indexed": true,
					"internalType": "address",
					"name": "newOwner",
					"type": "address"
				}
			],
			"name": "OwnershipTransferred",
			"type": "event"
		},
		{
			"anonymous": false,
			"inputs": [
				{
					"indexed": false,
					"internalType": "address",
					"name": "account",
					"type": "address"
				}
			],
			"name": "Paused",
			"type": "event"
		},
		{
			"anonymous": false,
			"inputs": [
				{
					"indexed": false,
					"internalType": "uint256",
					"name": "_amount",
					"type": "uint256"
				}
			],
			"name": "TransferredToBeneficiary",
			"type": "event"
		},
		{
			"anonymous": false,
			"inputs": [
				{
					"indexed": false,
					"internalType": "address",
					"name": "account",
					"type": "address"
				}
			],
			"name": "Unpaused",
			"type": "event"
		},
		{
			"stateMutability": "payable",
			"type": "fallback",
			"payable": true
		},
		{
			"inputs": [],
			"name": "information",
			"outputs": [
				{
					"internalType": "address payable",
					"name": "beneficiary",
					"type": "address"
				},
				{
					"internalType": "string",
					"name": "name",
					"type": "string"
				},
				{
					"internalType": "string",
					"name": "description",
					"type": "string"
				},
				{
					"internalType": "string",
					"name": "website",
					"type": "string"
				},
				{
					"internalType": "string",
					"name": "thumbnail",
					"type": "string"
				}
			],
			"stateMutability": "view",
			"type": "function",
			"constant": true
		},
		{
			"inputs": [],
			"name": "owner",
			"outputs": [
				{
					"internalType": "address",
					"name": "",
					"type": "address"
				}
			],
			"stateMutability": "view",
			"type": "function",
			"constant": true
		},
		{
			"inputs": [],
			"name": "paused",
			"outputs": [
				{
					"internalType": "bool",
					"name": "",
					"type": "bool"
				}
			],
			"stateMutability": "view",
			"type": "function",
			"constant": true
		},
		{
			"inputs": [],
			"name": "renounceOwnership",
			"outputs": [],
			"stateMutability": "nonpayable",
			"type": "function"
		},
		{
			"inputs": [
				{
					"internalType": "address",
					"name": "newOwner",
					"type": "address"
				}
			],
			"name": "transferOwnership",
			"outputs": [],
			"stateMutability": "nonpayable",
			"type": "function"
		},
		{
			"stateMutability": "payable",
			"type": "receive",
			"payable": true
		},
		{
			"inputs": [],
			"name": "custodian",
			"outputs": [
				{
					"internalType": "address",
					"name": "",
					"type": "address"
				}
			],
			"stateMutability": "view",
			"type": "function",
			"constant": true
		},
		{
			"inputs": [],
			"name": "beneficiary",
			"outputs": [
				{
					"internalType": "address",
					"name": "",
					"type": "address"
				}
			],
			"stateMutability": "view",
			"type": "function",
			"constant": true
		},
		{
			"inputs": [
				{
					"internalType": "address payable",
					"name": "_beneficiary",
					"type": "address"
				}
			],
			"name": "setBeneficiary",
			"outputs": [],
			"stateMutability": "nonpayable",
			"type": "function"
		},
		{
			"inputs": [],
			"name": "raised",
			"outputs": [
				{
					"internalType": "uint256",
					"name": "",
					"type": "uint256"
				}
			],
			"stateMutability": "view",
			"type": "function",
			"constant": true
		},
		{
			"inputs": [],
			"name": "count",
			"outputs": [
				{
					"internalType": "uint256",
					"name": "",
					"type": "uint256"
				}
			],
			"stateMutability": "view",
			"type": "function",
			"constant": true
		},
		{
			"inputs": [],
			"name": "myRaised",
			"outputs": [
				{
					"internalType": "uint256",
					"name": "",
					"type": "uint256"
				}
			],
			"stateMutability": "view",
			"type": "function",
			"constant": true
		},
		{
			"inputs": [],
			"name": "myCount",
			"outputs": [
				{
					"internalType": "uint256",
					"name": "",
					"type": "uint256"
				}
			],
			"stateMutability": "view",
			"type": "function",
			"constant": true
		},
		{
			"inputs": [],
			"name": "myDonations",
			"outputs": [
				{
					"components": [
						{
							"internalType": "uint256",
							"name": "amount",
							"type": "uint256"
						},
						{
							"internalType": "uint256",
							"name": "timestamp",
							"type": "uint256"
						}
					],
					"internalType": "struct Fundraiser.Donation[]",
					"name": "",
					"type": "tuple[]"
				}
			],
			"stateMutability": "view",
			"type": "function",
			"constant": true
		},
		{
			"inputs": [],
			"name": "donate",
			"outputs": [],
			"stateMutability": "payable",
			"type": "function",
			"payable": true
		},
		{
			"inputs": [],
			"name": "withdraw",
			"outputs": [],
			"stateMutability": "nonpayable",
			"type": "function"
		},
		{
			"inputs": [],
			"name": "pause",
			"outputs": [],
			"stateMutability": "nonpayable",
			"type": "function"
		},
		{
			"inputs": [],
			"name": "unpause",
			"outputs": [],
			"stateMutability": "nonpayable",
			"type": "function"
		}
	],
	"bytecode": "0x60806040523480156200001157600080fd5b506040516200262338038062002623833981810160405281019062000037919062000585565b620000576200004b6200012c60201b60201c565b6200013460201b60201c565b60008060146101000a81548160ff021916908315150217905550600180819055506200008986620001f860201b60201c565b84600260000160006101000a81548173ffffffffffffffffffffffffffffffffffffffff021916908373ffffffffffffffffffffffffffffffffffffffff1602179055508360026001019081620000e19190620008e8565b5082600280019081620000f59190620008e8565b5081600260030190816200010a9190620008e8565b5080600260040190816200011f9190620008e8565b5050505050505062000aea565b600033905090565b60008060009054906101000a900473ffffffffffffffffffffffffffffffffffffffff169050816000806101000a81548173ffffffffffffffffffffffffffffffffffffffff021916908373ffffffffffffffffffffffffffffffffffffffff1602179055508173ffffffffffffffffffffffffffffffffffffffff168173ffffffffffffffffffffffffffffffffffffffff167f8be0079c531659141344cd1fd0a4f28419497f9722a3daafe3b4186f6b6457e060405160405180910390a35050565b620002086200028e60201b60201c565b600073ffffffffffffffffffffffffffffffffffffffff168173ffffffffffffffffffffffffffffffffffffffff16036200027a576040517f08c379a0000000000000000000000000000000000000000000000000000000008152600401620002719062000a56565b60405180910390fd5b6200028b816200013460201b60201c565b50565b6200029e6200012c60201b60201c565b73ffffffffffffffffffffffffffffffffffffffff16620002c46200031f60201b60201c565b73ffffffffffffffffffffffffffffffffffffffff16146200031d576040517f08c379a0000000000000000000000000000000000000000000000000000000008152600401620003149062000ac8565b60405180910390fd5b565b60008060009054906101000a900473ffffffffffffffffffffffffffffffffffffffff16905090565b6000604051905090565b600080fd5b600080fd5b600073ffffffffffffffffffffffffffffffffffffffff82169050919050565b600062000389826200035c565b9050919050565b6200039b816200037c565b8114620003a757600080fd5b50565b600081519050620003bb8162000390565b92915050565b6000620003ce826200035c565b9050919050565b620003e081620003c1565b8114620003ec57600080fd5b50565b6000815190506200040081620003d5565b92915050565b600080fd5b600080fd5b6000601f19601f8301169050919050565b7f4e487b7100000000000000000000000000000000000000000000000000000000600052604160045260246000fd5b6200045b8262000410565b810181811067ffffffffffffffff821117156200047d576200047c62000421565b5b80604052505050565b60006200049262000348565b9050620004a0828262000450565b919050565b600067ffffffffffffffff821115620004c357620004c262000421565b5b620004ce8262000410565b9050602081019050919050565b60005b83811015620004fb578082015181840152602081019050620004de565b60008484015250505050565b60006200051e6200051884620004a5565b62000486565b9050828152602081018484840111156200053d576200053c6200040b565b5b6200054a848285620004db565b509392505050565b600082601f8301126200056a576200056962000406565b5b81516200057c84826020860162000507565b91505092915050565b60008060008060008060c08789031215620005a557620005a462000352565b5b6000620005b589828a01620003aa565b9650506020620005c889828a01620003ef565b955050604087015167ffffffffffffffff811115620005ec57620005eb62000357565b5b620005fa89828a0162000552565b945050606087015167ffffffffffffffff8111156200061e576200061d62000357565b5b6200062c89828a0162000552565b935050608087015167ffffffffffffffff81111562000650576200064f62000357565b5b6200065e89828a0162000552565b92505060a087015167ffffffffffffffff81111562000682576200068162000357565b5b6200069089828a0162000552565b9150509295509295509295565b600081519050919050565b7f4e487b7100000000000000000000000000000000000000000000000000000000600052602260045260246000fd5b60006002820490506001821680620006f057607f821691505b602082108103620007065762000705620006a8565b5b50919050565b60008190508160005260206000209050919050565b60006020601f8301049050919050565b600082821b905092915050565b600060088302620007707fffffffffffffffffffffffffffffffffffffffffffffffffffffffffffffffff8262000731565b6200077c868362000731565b95508019841693508086168417925050509392505050565b6000819050919050565b6000819050919050565b6000620007c9620007c3620007bd8462000794565b6200079e565b62000794565b9050919050565b6000819050919050565b620007e583620007a8565b620007fd620007f482620007d0565b8484546200073e565b825550505050565b600090565b6200081462000805565b62000821818484620007da565b505050565b5b8181101562000849576200083d6000826200080a565b60018101905062000827565b5050565b601f821115620008985762000862816200070c565b6200086d8462000721565b810160208510156200087d578190505b620008956200088c8562000721565b83018262000826565b50505b505050565b600082821c905092915050565b6000620008bd600019846008026200089d565b1980831691505092915050565b6000620008d88383620008aa565b9150826002028217905092915050565b620008f3826200069d565b67ffffffffffffffff8111156200090f576200090e62000421565b5b6200091b8254620006d7565b620009288282856200084d565b600060209050601f8311600181146200096057600084156200094b578287015190505b620009578582620008ca565b865550620009c7565b601f19841662000970866200070c565b60005b828110156200099a5784890151825560018201915060208501945060208101905062000973565b86831015620009ba5784890151620009b6601f891682620008aa565b8355505b6001600288020188555050505b505050505050565b600082825260208201905092915050565b7f4f776e61626c653a206e6577206f776e657220697320746865207a65726f206160008201527f6464726573730000000000000000000000000000000000000000000000000000602082015250565b600062000a3e602683620009cf565b915062000a4b82620009e0565b604082019050919050565b6000602082019050818103600083015262000a718162000a2f565b9050919050565b7f4f776e61626c653a2063616c6c6572206973206e6f7420746865206f776e6572600082015250565b600062000ab0602083620009cf565b915062000abd8262000a78565b602082019050919050565b6000602082019050818103600083015262000ae38162000aa1565b9050919050565b611b298062000afa6000396000f3fe6080604052600436106101025760003560e01c80635c975abb116100955780638da5cb5b116100645780638da5cb5b1461032f578063ed88c68e1461035a578063f0ea4bfc14610364578063f2fde38b1461038f578063f47b7740146103b857610142565b80635c975abb146102ab578063715018a6146102d65780638456cb59146102ed5780638ce79b6e1461030457610142565b806338af3eed116100d157806338af3eed146102275780633ccfd60b146102525780633f4ba83a1461026957806357c357401461028057610142565b806306661abd1461017d5780631a57f7b4146101a85780631c31f710146101d3578063375b74c3146101fc57610142565b36610142576040517f08c379a000000000000000000000000000000000000000000000000000000000815260040161013990611117565b60405180910390fd5b6040517f08c379a0000000000000000000000000000000000000000000000000000000008152600401610174906111a9565b60405180910390fd5b34801561018957600080fd5b506101926103e7565b60405161019f91906111e2565b60405180910390f35b3480156101b457600080fd5b506101bd6103f4565b6040516101ca91906112ea565b60405180910390f35b3480156101df57600080fd5b506101fa60048036038101906101f5919061136f565b6104a4565b005b34801561020857600080fd5b506102116105e3565b60405161021e91906113bd565b60405180910390f35b34801561023357600080fd5b5061023c6105f2565b60405161024991906113bd565b60405180910390f35b34801561025e57600080fd5b5061026761061f565b005b34801561027557600080fd5b5061027e610785565b005b34801561028c57600080fd5b50610295610797565b6040516102a291906111e2565b60405180910390f35b3480156102b757600080fd5b506102c06107e1565b6040516102cd91906113f3565b60405180910390f35b3480156102e257600080fd5b506102eb6107f7565b005b3480156102f957600080fd5b5061030261080b565b005b34801561031057600080fd5b5061031961081d565b60405161032691906111e2565b60405180910390f35b34801561033b57600080fd5b50610344610867565b60405161035191906113bd565b60405180910390f35b610362610890565b005b34801561037057600080fd5b50610379610aa6565b60405161038691906111e2565b60405180910390f35b34801561039b57600080fd5b506103b660048036038101906103b1919061143a565b610ab3565b005b3480156103c457600080fd5b506103cd610b36565b6040516103de9594939291906114f5565b60405180910390f35b6000600760010154905090565b6060600a60003373ffffffffffffffffffffffffffffffffffffffff1673ffffffffffffffffffffffffffffffffffffffff168152602001908152602001600020805480602002602001604051908101604052809291908181526020016000905b8282101561049b57838290600052602060002090600202016040518060400160405290816000820154815260200160018201548152505081526020019060010190610455565b50505050905090565b6104ac610d9a565b80600073ffffffffffffffffffffffffffffffffffffffff168173ffffffffffffffffffffffffffffffffffffffff160361051c576040517f08c379a0000000000000000000000000000000000000000000000000000000008152600401610513906115b0565b60405180910390fd5b8173ffffffffffffffffffffffffffffffffffffffff16600260000160009054906101000a900473ffffffffffffffffffffffffffffffffffffffff1673ffffffffffffffffffffffffffffffffffffffff167f768099735d1c322a05a5b9d7b76d99682a1833d3f7055e5ede25e0f2eeaa8c6d60405160405180910390a381600260000160006101000a81548173ffffffffffffffffffffffffffffffffffffffff021916908373ffffffffffffffffffffffffffffffffffffffff1602179055505050565b60006105ed610867565b905090565b6000600260000160009054906101000a900473ffffffffffffffffffffffffffffffffffffffff16905090565b610627610d9a565b6000471161066a576040517f08c379a000000000000000000000000000000000000000000000000000000000815260040161066190611642565b60405180910390fd5b610672610e18565b7f8d02447a0411411231cc3847790555d8c57378b38e00b48aa0bf8b97f602b534476040516106a191906111e2565b60405180910390a16000600260000160009054906101000a900473ffffffffffffffffffffffffffffffffffffffff1673ffffffffffffffffffffffffffffffffffffffff16476040516106f490611693565b60006040518083038185875af1925050503d8060008114610731576040519150601f19603f3d011682016040523d82523d6000602084013e610736565b606091505b505090508061077a576040517f08c379a0000000000000000000000000000000000000000000000000000000008152600401610771906116f4565b60405180910390fd5b50610783610e67565b565b61078d610d9a565b610795610e70565b565b6000600960003373ffffffffffffffffffffffffffffffffffffffff1673ffffffffffffffffffffffffffffffffffffffff16815260200190815260200160002060010154905090565b60008060149054906101000a900460ff16905090565b6107ff610d9a565b6108096000610ed2565b565b610813610d9a565b61081b610f96565b565b6000600960003373ffffffffffffffffffffffffffffffffffffffff1673ffffffffffffffffffffffffffffffffffffffff16815260200190815260200160002060000154905090565b60008060009054906101000a900473ffffffffffffffffffffffffffffffffffffffff16905090565b610898610ff9565b600034116108db576040517f08c379a00000000000000000000000000000000000000000000000000000000081526004016108d290611786565b60405180910390fd5b3373ffffffffffffffffffffffffffffffffffffffff167f264f630d9efa0d07053a31163641d9fcc0adafc9d9e76f1c37c2ce3a558d2c523460405161092191906111e2565b60405180910390a2346007600001600082825461093e91906117d5565b925050819055506007600101600081548092919061095b90611809565b919050555034600960003373ffffffffffffffffffffffffffffffffffffffff1673ffffffffffffffffffffffffffffffffffffffff16815260200190815260200160002060000160008282546109b291906117d5565b92505081905550600960003373ffffffffffffffffffffffffffffffffffffffff1673ffffffffffffffffffffffffffffffffffffffff1681526020019081526020016000206001016000815480929190610a0c90611809565b9190505550600a60003373ffffffffffffffffffffffffffffffffffffffff1673ffffffffffffffffffffffffffffffffffffffff168152602001908152602001600020604051806040016040528034815260200142815250908060018154018082558091505060019003906000526020600020906002020160009091909190915060008201518160000155602082015181600101555050565b6000600760000154905090565b610abb610d9a565b600073ffffffffffffffffffffffffffffffffffffffff168173ffffffffffffffffffffffffffffffffffffffff1603610b2a576040517f08c379a0000000000000000000000000000000000000000000000000000000008152600401610b21906118c3565b60405180910390fd5b610b3381610ed2565b50565b60028060000160009054906101000a900473ffffffffffffffffffffffffffffffffffffffff1690806001018054610b6d90611912565b80601f0160208091040260200160405190810160405280929190818152602001828054610b9990611912565b8015610be65780601f10610bbb57610100808354040283529160200191610be6565b820191906000526020600020905b815481529060010190602001808311610bc957829003601f168201915b505050505090806002018054610bfb90611912565b80601f0160208091040260200160405190810160405280929190818152602001828054610c2790611912565b8015610c745780601f10610c4957610100808354040283529160200191610c74565b820191906000526020600020905b815481529060010190602001808311610c5757829003601f168201915b505050505090806003018054610c8990611912565b80601f0160208091040260200160405190810160405280929190818152602001828054610cb590611912565b8015610d025780601f10610cd757610100808354040283529160200191610d02565b820191906000526020600020905b815481529060010190602001808311610ce557829003601f168201915b505050505090806004018054610d1790611912565b80601f0160208091040260200160405190810160405280929190818152602001828054610d4390611912565b8015610d905780601f10610d6557610100808354040283529160200191610d90565b820191906000526020600020905b815481529060010190602001808311610d7357829003601f168201915b5050505050905085565b610da2611043565b73ffffffffffffffffffffffffffffffffffffffff16610dc0610867565b73ffffffffffffffffffffffffffffffffffffffff1614610e16576040517f08c379a0000000000000000000000000000000000000000000000000000000008152600401610e0d9061198f565b60405180910390fd5b565b600260015403610e5d576040517f08c379a0000000000000000000000000000000000000000000000000000000008152600401610e54906119fb565b60405180910390fd5b6002600181905550565b60018081905550565b610e7861104b565b60008060146101000a81548160ff0219169083151502179055507f5db9ee0a495bf2e6ff9c91a7834c1ba4fdd244a5e8aa4e537bd38aeae4b073aa610ebb611043565b604051610ec891906113bd565b60405180910390a1565b60008060009054906101000a900473ffffffffffffffffffffffffffffffffffffffff169050816000806101000a81548173ffffffffffffffffffffffffffffffffffffffff021916908373ffffffffffffffffffffffffffffffffffffffff1602179055508173ffffffffffffffffffffffffffffffffffffffff168173ffffffffffffffffffffffffffffffffffffffff167f8be0079c531659141344cd1fd0a4f28419497f9722a3daafe3b4186f6b6457e060405160405180910390a35050565b610f9e610ff9565b6001600060146101000a81548160ff0219169083151502179055507f62e78cea01bee320cd4e420270b5ea74000d11b0c9f74754ebdbfc544b05a258610fe2611043565b604051610fef91906113bd565b60405180910390a1565b6110016107e1565b15611041576040517f08c379a000000000000000000000000000000000000000000000000000000000815260040161103890611a67565b60405180910390fd5b565b600033905090565b6110536107e1565b611092576040517f08c379a000000000000000000000000000000000000000000000000000000000815260040161108990611ad3565b60405180910390fd5b565b600082825260208201905092915050565b7f7265636569766528292069732064697361626c65642c20706c6561736520757360008201527f6520646f6e61746528292e000000000000000000000000000000000000000000602082015250565b6000611101602b83611094565b915061110c826110a5565b604082019050919050565b60006020820190508181036000830152611130816110f4565b9050919050565b7f66616c6c6261636b28292069732064697361626c65642c20706c65617365207560008201527f736520646f6e61746528292e0000000000000000000000000000000000000000602082015250565b6000611193602c83611094565b915061119e82611137565b604082019050919050565b600060208201905081810360008301526111c281611186565b9050919050565b6000819050919050565b6111dc816111c9565b82525050565b60006020820190506111f760008301846111d3565b92915050565b600081519050919050565b600082825260208201905092915050565b6000819050602082019050919050565b611232816111c9565b82525050565b60408201600082015161124e6000850182611229565b5060208201516112616020850182611229565b50505050565b60006112738383611238565b60408301905092915050565b6000602082019050919050565b6000611297826111fd565b6112a18185611208565b93506112ac83611219565b8060005b838110156112dd5781516112c48882611267565b97506112cf8361127f565b9250506001810190506112b0565b5085935050505092915050565b60006020820190508181036000830152611304818461128c565b905092915050565b600080fd5b600073ffffffffffffffffffffffffffffffffffffffff82169050919050565b600061133c82611311565b9050919050565b61134c81611331565b811461135757600080fd5b50565b60008135905061136981611343565b92915050565b6000602082840312156113855761138461130c565b5b60006113938482850161135a565b91505092915050565b60006113a782611311565b9050919050565b6113b78161139c565b82525050565b60006020820190506113d260008301846113ae565b92915050565b60008115159050919050565b6113ed816113d8565b82525050565b600060208201905061140860008301846113e4565b92915050565b6114178161139c565b811461142257600080fd5b50565b6000813590506114348161140e565b92915050565b6000602082840312156114505761144f61130c565b5b600061145e84828501611425565b91505092915050565b61147081611331565b82525050565b600081519050919050565b60005b8381101561149f578082015181840152602081019050611484565b60008484015250505050565b6000601f19601f8301169050919050565b60006114c782611476565b6114d18185611094565b93506114e1818560208601611481565b6114ea816114ab565b840191505092915050565b600060a08201905061150a6000830188611467565b818103602083015261151c81876114bc565b9050818103604083015261153081866114bc565b9050818103606083015261154481856114bc565b9050818103608083015261155881846114bc565b90509695505050505050565b7f5a65726f206164647265737320697320616c6c6f7765642e0000000000000000600082015250565b600061159a601883611094565b91506115a582611564565b602082019050919050565b600060208201905081810360008301526115c98161158d565b9050919050565b7f53656e6420616d6f756e74206d75737420626520677261746572207468616e2060008201527f7a65726f2e000000000000000000000000000000000000000000000000000000602082015250565b600061162c602583611094565b9150611637826115d0565b604082019050919050565b6000602082019050818103600083015261165b8161161f565b9050919050565b600081905092915050565b50565b600061167d600083611662565b91506116888261166d565b600082019050919050565b600061169e82611670565b9150819050919050565b7f5472616e73666572206661696c65642e00000000000000000000000000000000600082015250565b60006116de601083611094565b91506116e9826116a8565b602082019050919050565b6000602082019050818103600083015261170d816116d1565b9050919050565b7f5265636965766520616d6f756e74206d7573742062652067726174657220746860008201527f616e207a65726f2e000000000000000000000000000000000000000000000000602082015250565b6000611770602883611094565b915061177b82611714565b604082019050919050565b6000602082019050818103600083015261179f81611763565b9050919050565b7f4e487b7100000000000000000000000000000000000000000000000000000000600052601160045260246000fd5b60006117e0826111c9565b91506117eb836111c9565b9250828201905080821115611803576118026117a6565b5b92915050565b6000611814826111c9565b91507fffffffffffffffffffffffffffffffffffffffffffffffffffffffffffffffff8203611846576118456117a6565b5b600182019050919050565b7f4f776e61626c653a206e6577206f776e657220697320746865207a65726f206160008201527f6464726573730000000000000000000000000000000000000000000000000000602082015250565b60006118ad602683611094565b91506118b882611851565b604082019050919050565b600060208201905081810360008301526118dc816118a0565b9050919050565b7f4e487b7100000000000000000000000000000000000000000000000000000000600052602260045260246000fd5b6000600282049050600182168061192a57607f821691505b60208210810361193d5761193c6118e3565b5b50919050565b7f4f776e61626c653a2063616c6c6572206973206e6f7420746865206f776e6572600082015250565b6000611979602083611094565b915061198482611943565b602082019050919050565b600060208201905081810360008301526119a88161196c565b9050919050565b7f5265656e7472616e637947756172643a207265656e7472616e742063616c6c00600082015250565b60006119e5601f83611094565b91506119f0826119af565b602082019050919050565b60006020820190508181036000830152611a14816119d8565b9050919050565b7f5061757361626c653a2070617573656400000000000000000000000000000000600082015250565b6000611a51601083611094565b9150611a5c82611a1b565b602082019050919050565b60006020820190508181036000830152611a8081611a44565b9050919050565b7f5061757361626c653a206e6f7420706175736564000000000000000000000000600082015250565b6000611abd601483611094565b9150611ac882611a87565b602082019050919050565b60006020820190508181036000830152611aec81611ab0565b905091905056fea2646970667358221220fbff836df12c24af2eaab7a3b96c7311434020b5ee6b0c9c738bf0a84a16cf6964736f6c63430008130033",
	"immutableReferences": {},
	"source": "// SPDX-License-Identifier: MITF\r\n// pragma solidity >=0.8.0 <=0.8.19; // NOTE: Contracts should be deployed with the same compiler version and flags that they have been tested the most with.\r\npragma solidity 0.8.19;\r\n\r\n// import \"../node_modules/@openzeppelin/contracts/utils/math/SafeMath.sol\";\r\nimport \"../node_modules/@openzeppelin/contracts/access/Ownable.sol\";\r\nimport \"../node_modules/@openzeppelin/contracts/security/Pausable.sol\";\r\nimport \"../node_modules/@openzeppelin/contracts/security/ReentrancyGuard.sol\";\r\n\r\ncontract Fundraiser is Ownable, Pausable, ReentrancyGuard {\r\n\r\n\t// using SafeMath for uint256; // NOTE: Not needed in \"solidity >=0.8.0\".\r\n\r\n\t// TO DO: Add more properties.\r\n\tstruct Details {\r\n\t\taddress payable beneficiary;\r\n\t\tstring name;\r\n\t\tstring description;\r\n\t\tstring website;\r\n\t\tstring thumbnail;\r\n\t}\r\n\tDetails public information;\r\n\r\n\tstruct Total {\r\n\t\tuint256 raised;\r\n\t\tuint256 count;\r\n\t}\r\n\tTotal private combined;\r\n\tmapping(address => Total) private individual;\r\n\r\n\t// TO DO: Add more properties.\r\n\tstruct Donation {\r\n\t\tuint256 amount;\r\n\t\tuint256 timestamp;\r\n\t}\r\n\tmapping(address => Donation[]) private donations;\r\n\r\n\tevent BeneficiaryChanged(address indexed _beneficiaryOld, address indexed _beneficiaryNew);\r\n\tevent DonationReceived(address indexed _philanthropist, uint256 _amount);\r\n\tevent TransferredToBeneficiary(uint256 _amount);\r\n\r\n\tmodifier nonBurnable(address _address) {\r\n\t\trequire(_address != address(0), \"Zero address is allowed.\");\r\n\t\t_;\r\n\t}\r\n\r\n\tmodifier nonZeroReceive() {\r\n\t\trequire(msg.value > 0, \"Recieve amount must be grater than zero.\");\r\n\t\t_;\r\n\t}\r\n\r\n\tmodifier nonZeroSend() {\r\n\t\trequire(address(this).balance > 0, \"Send amount must be grater than zero.\");\r\n\t\t_;\r\n\t}\r\n\r\n\tconstructor(address _custodian, address payable _beneficiary, string memory _name, string memory _description, string memory _website, string memory _thumbnail) {\r\n\t\ttransferOwnership(_custodian);\r\n\t\tinformation.beneficiary = _beneficiary;\r\n\t\tinformation.name        = _name;\r\n\t\tinformation.description = _description;\r\n\t\tinformation.website     = _website;\r\n\t\tinformation.thumbnail   = _thumbnail;\r\n\t}\r\n\r\n\t// NOTE: All methods are external and not public in order to reduce the gas cost.\r\n\r\n\tfunction custodian() external view returns(address) {\r\n\t\treturn owner();\r\n\t}\r\n\r\n\tfunction beneficiary() external view returns(address) {\r\n\t\treturn information.beneficiary;\r\n\t}\r\n\r\n\tfunction setBeneficiary(address payable _beneficiary) external onlyOwner nonBurnable(_beneficiary) {\r\n\t\temit BeneficiaryChanged(information.beneficiary, _beneficiary);\r\n\t\tinformation.beneficiary = _beneficiary;\r\n\t}\r\n\r\n\tfunction raised() external view returns(uint256) {\r\n\t\treturn combined.raised;\r\n\t}\r\n\r\n\tfunction count() external view returns(uint256) {\r\n\t\treturn combined.count;\r\n\t}\r\n\r\n\tfunction myRaised() external view returns(uint256) {\r\n\t\treturn individual[msg.sender].raised;\r\n\t}\r\n\r\n\tfunction myCount() external view returns(uint256) {\r\n\t\treturn individual[msg.sender].count;\r\n\t}\r\n\r\n\t// TO DO: Make a pagination.\r\n\tfunction myDonations() external view returns(Donation[] memory) {\r\n\t\treturn donations[msg.sender];\r\n\t}\r\n\r\n\tfunction donate() external payable whenNotPaused nonZeroReceive {\r\n\t\temit DonationReceived(msg.sender, msg.value);\r\n\t\tcombined.raised += msg.value;\r\n\t\tcombined.count++;\r\n\t\tindividual[msg.sender].raised += msg.value;\r\n\t\tindividual[msg.sender].count++;\r\n\t\tdonations[msg.sender].push(\r\n\t\t\tDonation({\r\n\t\t\t\tamount: msg.value,\r\n\t\t\t\ttimestamp: block.timestamp // NOTE: \"block.timestamp\" should not be trusted, but it does not matter for this use.\r\n\t\t\t}\r\n\t\t));\r\n\t}\r\n\r\n\treceive() external payable {\r\n\t\trevert(\"receive() is disabled, please use donate().\");\r\n\t}\r\n\r\n\tfallback() external payable {\r\n\t\trevert(\"fallback() is disabled, please use donate().\");\r\n\t}\r\n\r\n\tfunction withdraw() external onlyOwner nonZeroSend nonReentrant {\r\n\t\temit TransferredToBeneficiary(address(this).balance);\r\n\t\t// information.beneficiary.transfer(address(this).balance); // NOTE: \"transfer()\" should be avoided because the gas cost may change in the future causing a possible reentrancy attack.\r\n\t\t(bool success, ) = information.beneficiary.call{value: address(this).balance}(\"\");\r\n\t\trequire(success, \"Transfer failed.\");\r\n\t}\r\n\r\n\tfunction pause() external onlyOwner {\r\n\t\t// selfdestruct(information.beneficiary); // NOTE: \"selfdestruct()\" should be avoided, use \"Pausable\" instead.\r\n\t\t_pause();\r\n\t}\r\n\r\n\tfunction unpause() external onlyOwner {\r\n\t\t_unpause();\r\n\t}\r\n\r\n}\r\n",
	"sourcePath": "C:\\Users\\W10\\Desktop\\Fundraiser\\truffle\\contracts\\Fundraiser.sol",
	"compiler": {
		"name": "solc",
		"version": "0.8.19+commit.7dd6d404.Emscripten.clang"
	},
	"schemaVersion": "3.4.14",
	"updatedAt": "2023-07-11T06:00:04.428Z",
	"networkType": "ethereum",
	"devdoc": {
		"events": {
			"Paused(address)": {
				"details": "Emitted when the pause is triggered by `account`."
			},
			"Unpaused(address)": {
				"details": "Emitted when the pause is lifted by `account`."
			}
		},
		"kind": "dev",
		"methods": {
			"owner()": {
				"details": "Returns the address of the current owner."
			},
			"paused()": {
				"details": "Returns true if the contract is paused, and false otherwise."
			},
			"renounceOwnership()": {
				"details": "Leaves the contract without owner. It will not be possible to call `onlyOwner` functions. Can only be called by the current owner. NOTE: Renouncing ownership will leave the contract without an owner, thereby disabling any functionality that is only available to the owner."
			},
			"transferOwnership(address)": {
				"details": "Transfers ownership of the contract to a new account (`newOwner`). Can only be called by the current owner."
			}
		},
		"version": 1
	},
	"userdoc": {
		"kind": "user",
		"methods": {},
		"version": 1
	}
}