{
    "contractName": "Creator",
    "abi": [
        {
            "inputs": [],
            "stateMutability": "nonpayable",
            "type": "constructor"
        },
        {
            "anonymous": false,
            "inputs": [
                {
                    "indexed": false,
                    "internalType": "address",
                    "name": "addressProxy",
                    "type": "address"
                }
            ],
            "name": "CreateProxy",
            "type": "event"
        },
        {
            "anonymous": false,
            "inputs": [
                {
                    "indexed": false,
                    "internalType": "address",
                    "name": "addressTarget",
                    "type": "address"
                }
            ],
            "name": "CreateTarget",
            "type": "event"
        },
        {
            "anonymous": false,
            "inputs": [
                {
                    "indexed": false,
                    "internalType": "address",
                    "name": "addressProxy",
                    "type": "address"
                }
            ],
            "name": "DestroyProxy",
            "type": "event"
        },
        {
            "anonymous": false,
            "inputs": [
                {
                    "indexed": false,
                    "internalType": "address",
                    "name": "addressTarget",
                    "type": "address"
                }
            ],
            "name": "DestroyTarget",
            "type": "event"
        },
        {
            "anonymous": false,
            "inputs": [
                {
                    "indexed": true,
                    "internalType": "address",
                    "name": "previousOwner",
                    "type": "address"
                },
                {
                    "indexed": true,
                    "internalType": "address",
                    "name": "newOwner",
                    "type": "address"
                }
            ],
            "name": "OwnershipTransferred",
            "type": "event"
        },
        {
            "inputs": [],
            "name": "owner",
            "outputs": [
                {
                    "internalType": "address",
                    "name": "",
                    "type": "address"
                }
            ],
            "stateMutability": "view",
            "type": "function"
        },
        {
            "inputs": [],
            "name": "renounceOwnership",
            "outputs": [],
            "stateMutability": "nonpayable",
            "type": "function"
        },
        {
            "inputs": [
                {
                    "internalType": "address",
                    "name": "newOwner",
                    "type": "address"
                }
            ],
            "name": "transferOwnership",
            "outputs": [],
            "stateMutability": "nonpayable",
            "type": "function"
        },
        {
            "inputs": [
                {
                    "internalType": "uint256",
                    "name": "salt",
                    "type": "uint256"
                }
            ],
            "name": "create",
            "outputs": [],
            "stateMutability": "nonpayable",
            "type": "function"
        },
        {
            "inputs": [],
            "name": "destroy",
            "outputs": [],
            "stateMutability": "nonpayable",
            "type": "function"
        }
    ],
    "bytecode": "0x608060405234801561001057600080fd5b5061002d61002261003260201b60201c565b61003a60201b60201c565b6100fe565b600033905090565b60008060009054906101000a900473ffffffffffffffffffffffffffffffffffffffff169050816000806101000a81548173ffffffffffffffffffffffffffffffffffffffff021916908373ffffffffffffffffffffffffffffffffffffffff1602179055508173ffffffffffffffffffffffffffffffffffffffff168173ffffffffffffffffffffffffffffffffffffffff167f8be0079c531659141344cd1fd0a4f28419497f9722a3daafe3b4186f6b6457e060405160405180910390a35050565b6117848061010d6000396000f3fe608060405234801561001057600080fd5b50600436106100575760003560e01c8063715018a61461005c578063780900dc1461006657806383197ef0146100825780638da5cb5b1461008c578063f2fde38b146100aa575b600080fd5b6100646100c6565b005b610080600480360381019061007b91906106d9565b6100da565b005b61008a6102db565b005b61009461049b565b6040516100a19190610747565b60405180910390f35b6100c460048036038101906100bf919061078e565b6104c4565b005b6100ce610547565b6100d860006105c5565b565b6100e2610547565b8060001b6040516100f290610691565b8190604051809103906000f5905080158015610112573d6000803e3d6000fd5b50600160006101000a81548173ffffffffffffffffffffffffffffffffffffffff021916908373ffffffffffffffffffffffffffffffffffffffff1602179055507f32340bf052adf19b6294f5a724325e4cc444978d2cc5c7e2769a2df85db66098600160009054906101000a900473ffffffffffffffffffffffffffffffffffffffff166040516101a49190610747565b60405180910390a1600160009054906101000a900473ffffffffffffffffffffffffffffffffffffffff1673ffffffffffffffffffffffffffffffffffffffff1663c98165b66040518163ffffffff1660e01b81526004016020604051808303816000875af115801561021b573d6000803e3d6000fd5b505050506040513d601f19601f8201168201806040525081019061023f919061080b565b600260006101000a81548173ffffffffffffffffffffffffffffffffffffffff021916908373ffffffffffffffffffffffffffffffffffffffff1602179055507f09dab67bb67f4f6a4d48a8db27647ada98ab5a42c1e9fe01130454bdde5ae357600260009054906101000a900473ffffffffffffffffffffffffffffffffffffffff166040516102d09190610747565b60405180910390a150565b6102e3610547565b7f48fbe5d0ead4d3dbb0694101a7eb11a4c83b8e4838218746fdd471122855a744600260009054906101000a900473ffffffffffffffffffffffffffffffffffffffff166040516103349190610747565b60405180910390a1600260009054906101000a900473ffffffffffffffffffffffffffffffffffffffff1673ffffffffffffffffffffffffffffffffffffffff166383197ef06040518163ffffffff1660e01b8152600401600060405180830381600087803b1580156103a657600080fd5b505af11580156103ba573d6000803e3d6000fd5b505050507f53325b3e8971af59f780e4c1088e4bc71ca742d79876ae4ea93dd96061b6d23a600160009054906101000a900473ffffffffffffffffffffffffffffffffffffffff1660405161040f9190610747565b60405180910390a1600160009054906101000a900473ffffffffffffffffffffffffffffffffffffffff1673ffffffffffffffffffffffffffffffffffffffff166383197ef06040518163ffffffff1660e01b8152600401600060405180830381600087803b15801561048157600080fd5b505af1158015610495573d6000803e3d6000fd5b50505050565b60008060009054906101000a900473ffffffffffffffffffffffffffffffffffffffff16905090565b6104cc610547565b600073ffffffffffffffffffffffffffffffffffffffff168173ffffffffffffffffffffffffffffffffffffffff160361053b576040517f08c379a0000000000000000000000000000000000000000000000000000000008152600401610532906108bb565b60405180910390fd5b610544816105c5565b50565b61054f610689565b73ffffffffffffffffffffffffffffffffffffffff1661056d61049b565b73ffffffffffffffffffffffffffffffffffffffff16146105c3576040517f08c379a00000000000000000000000000000000000000000000000000000000081526004016105ba90610927565b60405180910390fd5b565b60008060009054906101000a900473ffffffffffffffffffffffffffffffffffffffff169050816000806101000a81548173ffffffffffffffffffffffffffffffffffffffff021916908373ffffffffffffffffffffffffffffffffffffffff1602179055508173ffffffffffffffffffffffffffffffffffffffff168173ffffffffffffffffffffffffffffffffffffffff167f8be0079c531659141344cd1fd0a4f28419497f9722a3daafe3b4186f6b6457e060405160405180910390a35050565b600033905090565b610e078061094883390190565b600080fd5b6000819050919050565b6106b6816106a3565b81146106c157600080fd5b50565b6000813590506106d3816106ad565b92915050565b6000602082840312156106ef576106ee61069e565b5b60006106fd848285016106c4565b91505092915050565b600073ffffffffffffffffffffffffffffffffffffffff82169050919050565b600061073182610706565b9050919050565b61074181610726565b82525050565b600060208201905061075c6000830184610738565b92915050565b61076b81610726565b811461077657600080fd5b50565b60008135905061078881610762565b92915050565b6000602082840312156107a4576107a361069e565b5b60006107b284828501610779565b91505092915050565b60006107c682610706565b9050919050565b60006107d8826107bb565b9050919050565b6107e8816107cd565b81146107f357600080fd5b50565b600081519050610805816107df565b92915050565b6000602082840312156108215761082061069e565b5b600061082f848285016107f6565b91505092915050565b600082825260208201905092915050565b7f4f776e61626c653a206e6577206f776e657220697320746865207a65726f206160008201527f6464726573730000000000000000000000000000000000000000000000000000602082015250565b60006108a5602683610838565b91506108b082610849565b604082019050919050565b600060208201905081810360008301526108d481610898565b9050919050565b7f4f776e61626c653a2063616c6c6572206973206e6f7420746865206f776e6572600082015250565b6000610911602083610838565b915061091c826108db565b602082019050919050565b6000602082019050818103600083015261094081610904565b905091905056fe608060405234801561001057600080fd5b5061002d61002261003260201b60201c565b61003a60201b60201c565b6100fe565b600033905090565b60008060009054906101000a900473ffffffffffffffffffffffffffffffffffffffff169050816000806101000a81548173ffffffffffffffffffffffffffffffffffffffff021916908373ffffffffffffffffffffffffffffffffffffffff1602179055508173ffffffffffffffffffffffffffffffffffffffff168173ffffffffffffffffffffffffffffffffffffffff167f8be0079c531659141344cd1fd0a4f28419497f9722a3daafe3b4186f6b6457e060405160405180910390a35050565b610cfa8061010d6000396000f3fe608060405234801561001057600080fd5b50600436106100575760003560e01c8063715018a61461005c57806383197ef0146100665780638da5cb5b14610070578063c98165b61461008e578063f2fde38b146100ac575b600080fd5b6100646100c8565b005b61006e6100dc565b005b610078610104565b60405161008591906103f5565b60405180910390f35b61009661012d565b6040516100a3919061046f565b60405180910390f35b6100c660048036038101906100c191906104bb565b6101da565b005b6100d061025d565b6100da60006102db565b565b6100e461025d565b6100ec610104565b73ffffffffffffffffffffffffffffffffffffffff16ff5b60008060009054906101000a900473ffffffffffffffffffffffffffffffffffffffff16905090565b600061013761025d565b61013f610104565b60405161014b906103a7565b61015591906103f5565b604051809103906000f080158015610171573d6000803e3d6000fd5b50600160006101000a81548173ffffffffffffffffffffffffffffffffffffffff021916908373ffffffffffffffffffffffffffffffffffffffff160217905550600160009054906101000a900473ffffffffffffffffffffffffffffffffffffffff16905090565b6101e261025d565b600073ffffffffffffffffffffffffffffffffffffffff168173ffffffffffffffffffffffffffffffffffffffff1603610251576040517f08c379a00000000000000000000000000000000000000000000000000000000081526004016102489061056b565b60405180910390fd5b61025a816102db565b50565b61026561039f565b73ffffffffffffffffffffffffffffffffffffffff16610283610104565b73ffffffffffffffffffffffffffffffffffffffff16146102d9576040517f08c379a00000000000000000000000000000000000000000000000000000000081526004016102d0906105d7565b60405180910390fd5b565b60008060009054906101000a900473ffffffffffffffffffffffffffffffffffffffff169050816000806101000a81548173ffffffffffffffffffffffffffffffffffffffff021916908373ffffffffffffffffffffffffffffffffffffffff1602179055508173ffffffffffffffffffffffffffffffffffffffff168173ffffffffffffffffffffffffffffffffffffffff167f8be0079c531659141344cd1fd0a4f28419497f9722a3daafe3b4186f6b6457e060405160405180910390a35050565b600033905090565b6106cd806105f883390190565b600073ffffffffffffffffffffffffffffffffffffffff82169050919050565b60006103df826103b4565b9050919050565b6103ef816103d4565b82525050565b600060208201905061040a60008301846103e6565b92915050565b6000819050919050565b600061043561043061042b846103b4565b610410565b6103b4565b9050919050565b60006104478261041a565b9050919050565b60006104598261043c565b9050919050565b6104698161044e565b82525050565b60006020820190506104846000830184610460565b92915050565b600080fd5b610498816103d4565b81146104a357600080fd5b50565b6000813590506104b58161048f565b92915050565b6000602082840312156104d1576104d061048a565b5b60006104df848285016104a6565b91505092915050565b600082825260208201905092915050565b7f4f776e61626c653a206e6577206f776e657220697320746865207a65726f206160008201527f6464726573730000000000000000000000000000000000000000000000000000602082015250565b60006105556026836104e8565b9150610560826104f9565b604082019050919050565b6000602082019050818103600083015261058481610548565b9050919050565b7f4f776e61626c653a2063616c6c6572206973206e6f7420746865206f776e6572600082015250565b60006105c16020836104e8565b91506105cc8261058b565b602082019050919050565b600060208201905081810360008301526105f0816105b4565b905091905056fe608060405234801561001057600080fd5b506040516106cd3803806106cd83398181016040528101906100329190610192565b61004e61004361006360201b60201c565b61006b60201b60201c565b61005d8161006b60201b60201c565b506101bf565b600033905090565b60008060009054906101000a900473ffffffffffffffffffffffffffffffffffffffff169050816000806101000a81548173ffffffffffffffffffffffffffffffffffffffff021916908373ffffffffffffffffffffffffffffffffffffffff1602179055508173ffffffffffffffffffffffffffffffffffffffff168173ffffffffffffffffffffffffffffffffffffffff167f8be0079c531659141344cd1fd0a4f28419497f9722a3daafe3b4186f6b6457e060405160405180910390a35050565b600080fd5b600073ffffffffffffffffffffffffffffffffffffffff82169050919050565b600061015f82610134565b9050919050565b61016f81610154565b811461017a57600080fd5b50565b60008151905061018c81610166565b92915050565b6000602082840312156101a8576101a761012f565b5b60006101b68482850161017d565b91505092915050565b6104ff806101ce6000396000f3fe6080604052600436106100435760003560e01c8063715018a61461004c57806383197ef0146100635780638da5cb5b1461007a578063f2fde38b146100a55761004a565b3661004a57005b005b34801561005857600080fd5b506100616100ce565b005b34801561006f57600080fd5b506100786100e2565b005b34801561008657600080fd5b5061008f61010a565b60405161009c9190610341565b60405180910390f35b3480156100b157600080fd5b506100cc60048036038101906100c7919061038d565b610133565b005b6100d66101b6565b6100e06000610234565b565b6100ea6101b6565b6100f261010a565b73ffffffffffffffffffffffffffffffffffffffff16ff5b60008060009054906101000a900473ffffffffffffffffffffffffffffffffffffffff16905090565b61013b6101b6565b600073ffffffffffffffffffffffffffffffffffffffff168173ffffffffffffffffffffffffffffffffffffffff16036101aa576040517f08c379a00000000000000000000000000000000000000000000000000000000081526004016101a19061043d565b60405180910390fd5b6101b381610234565b50565b6101be6102f8565b73ffffffffffffffffffffffffffffffffffffffff166101dc61010a565b73ffffffffffffffffffffffffffffffffffffffff1614610232576040517f08c379a0000000000000000000000000000000000000000000000000000000008152600401610229906104a9565b60405180910390fd5b565b60008060009054906101000a900473ffffffffffffffffffffffffffffffffffffffff169050816000806101000a81548173ffffffffffffffffffffffffffffffffffffffff021916908373ffffffffffffffffffffffffffffffffffffffff1602179055508173ffffffffffffffffffffffffffffffffffffffff168173ffffffffffffffffffffffffffffffffffffffff167f8be0079c531659141344cd1fd0a4f28419497f9722a3daafe3b4186f6b6457e060405160405180910390a35050565b600033905090565b600073ffffffffffffffffffffffffffffffffffffffff82169050919050565b600061032b82610300565b9050919050565b61033b81610320565b82525050565b60006020820190506103566000830184610332565b92915050565b600080fd5b61036a81610320565b811461037557600080fd5b50565b60008135905061038781610361565b92915050565b6000602082840312156103a3576103a261035c565b5b60006103b184828501610378565b91505092915050565b600082825260208201905092915050565b7f4f776e61626c653a206e6577206f776e657220697320746865207a65726f206160008201527f6464726573730000000000000000000000000000000000000000000000000000602082015250565b60006104276026836103ba565b9150610432826103cb565b604082019050919050565b600060208201905081810360008301526104568161041a565b9050919050565b7f4f776e61626c653a2063616c6c6572206973206e6f7420746865206f776e6572600082015250565b60006104936020836103ba565b915061049e8261045d565b602082019050919050565b600060208201905081810360008301526104c281610486565b905091905056fea2646970667358221220863e155a39744a823c8cc8828d99594d2db5e711bd947a7786458530b17afe3d64736f6c63430008130033a2646970667358221220b8765ed7e6594b38938fb14c8b97a318190aa36477776bd6e21c9cd92190023664736f6c63430008130033a2646970667358221220014351b88495cc73ba361b830c5ada9db32877b279fc1b8afbced2be0d132d2a64736f6c63430008130033",
    "immutableReferences": {},
    "source": "// SPDX-License-Identifier: MIT\r\npragma solidity 0.8.19;\r\n\r\nimport \"../node_modules/@openzeppelin/contracts/access/Ownable.sol\";\r\n\r\n// NOTE: Metamorphic malware contract.\r\ncontract Target is Ownable {\r\n    constructor(address creator) {\r\n        _transferOwnership(creator); // NOTE: Transfering ownership from the 'Proxy' contract to the 'Creator' contract owned by the hacker.\r\n    }\r\n\r\n    receive() external payable {}\r\n\r\n    fallback() external payable {}\r\n\r\n    function destroy() external onlyOwner {\r\n        selfdestruct(payable(owner()));\r\n    }\r\n}\r\n\r\ncontract Proxy is Ownable {\r\n    Target private _target;\r\n\r\n    event CreateTarget(address addressTarget);\r\n    event DestroyTarget(address addressTarget);\r\n\r\n    constructor() {} // NOTE: 'Ownable' will set the 'Creator' contract owned by the hacker as the 'Proxy' contract owner.\r\n\r\n    function createTarget() external onlyOwner returns (Target) {\r\n        _target = new Target(owner()); // NOTE: Passing down the 'Creator' contract address.\r\n        return _target;\r\n    }\r\n\r\n    function destroy() external onlyOwner {\r\n        selfdestruct(payable(owner()));\r\n    }\r\n}\r\n\r\ncontract Creator is Ownable {\r\n    Proxy private _proxy;\r\n    Target private _target;\r\n\r\n    event CreateProxy(address addressProxy);\r\n    event DestroyProxy(address addressProxy);\r\n    event CreateTarget(address addressTarget);\r\n    event DestroyTarget(address addressTarget);\r\n\r\n    constructor() {} // NOTE: 'Ownable' will set the caller (hacker) as the 'Creator' contract owner.\r\n\r\n    function create(uint256 salt) external onlyOwner {\r\n        _proxy = new Proxy{salt: bytes32(salt)}();\r\n        emit CreateProxy(address(_proxy));\r\n        _target = _proxy.createTarget();\r\n        emit CreateTarget(address(_target));\r\n    }\r\n\r\n    function destroy() external onlyOwner {\r\n        emit DestroyTarget(address(_target));\r\n        _target.destroy();\r\n        emit DestroyProxy(address(_proxy));\r\n        _proxy.destroy();\r\n    }\r\n}\r\n",
    "sourcePath": "C:\\Users\\W11BB\\Desktop\\github_my\\solidity-learning\\Metamorphic\\contracts\\MetamorphicBasic.sol",
    "compiler": {
        "name": "solc",
        "version": "0.8.19+commit.7dd6d404.Emscripten.clang"
    },
    "schemaVersion": "3.4.16",
    "updatedAt": "2024-04-09T16:44:01.586Z",
    "devdoc": {
        "kind": "dev",
        "methods": {
            "owner()": {
                "details": "Returns the address of the current owner."
            },
            "renounceOwnership()": {
                "details": "Leaves the contract without owner. It will not be possible to call `onlyOwner` functions. Can only be called by the current owner. NOTE: Renouncing ownership will leave the contract without an owner, thereby disabling any functionality that is only available to the owner."
            },
            "transferOwnership(address)": {
                "details": "Transfers ownership of the contract to a new account (`newOwner`). Can only be called by the current owner."
            }
        },
        "version": 1
    },
    "userdoc": {
        "kind": "user",
        "methods": {},
        "version": 1
    }
}