{
    "contractName": "Target",
    "abi": [
        {
            "inputs": [
                {
                    "internalType": "address",
                    "name": "creator",
                    "type": "address"
                }
            ],
            "stateMutability": "nonpayable",
            "type": "constructor"
        },
        {
            "anonymous": false,
            "inputs": [
                {
                    "indexed": true,
                    "internalType": "address",
                    "name": "previousOwner",
                    "type": "address"
                },
                {
                    "indexed": true,
                    "internalType": "address",
                    "name": "newOwner",
                    "type": "address"
                }
            ],
            "name": "OwnershipTransferred",
            "type": "event"
        },
        {
            "stateMutability": "payable",
            "type": "fallback"
        },
        {
            "inputs": [],
            "name": "owner",
            "outputs": [
                {
                    "internalType": "address",
                    "name": "",
                    "type": "address"
                }
            ],
            "stateMutability": "view",
            "type": "function"
        },
        {
            "inputs": [],
            "name": "renounceOwnership",
            "outputs": [],
            "stateMutability": "nonpayable",
            "type": "function"
        },
        {
            "inputs": [
                {
                    "internalType": "address",
                    "name": "newOwner",
                    "type": "address"
                }
            ],
            "name": "transferOwnership",
            "outputs": [],
            "stateMutability": "nonpayable",
            "type": "function"
        },
        {
            "stateMutability": "payable",
            "type": "receive"
        },
        {
            "inputs": [],
            "name": "destroy",
            "outputs": [],
            "stateMutability": "nonpayable",
            "type": "function"
        }
    ],
    "bytecode": "0x608060405234801561001057600080fd5b506040516106cd3803806106cd83398181016040528101906100329190610192565b61004e61004361006360201b60201c565b61006b60201b60201c565b61005d8161006b60201b60201c565b506101bf565b600033905090565b60008060009054906101000a900473ffffffffffffffffffffffffffffffffffffffff169050816000806101000a81548173ffffffffffffffffffffffffffffffffffffffff021916908373ffffffffffffffffffffffffffffffffffffffff1602179055508173ffffffffffffffffffffffffffffffffffffffff168173ffffffffffffffffffffffffffffffffffffffff167f8be0079c531659141344cd1fd0a4f28419497f9722a3daafe3b4186f6b6457e060405160405180910390a35050565b600080fd5b600073ffffffffffffffffffffffffffffffffffffffff82169050919050565b600061015f82610134565b9050919050565b61016f81610154565b811461017a57600080fd5b50565b60008151905061018c81610166565b92915050565b6000602082840312156101a8576101a761012f565b5b60006101b68482850161017d565b91505092915050565b6104ff806101ce6000396000f3fe6080604052600436106100435760003560e01c8063715018a61461004c57806383197ef0146100635780638da5cb5b1461007a578063f2fde38b146100a55761004a565b3661004a57005b005b34801561005857600080fd5b506100616100ce565b005b34801561006f57600080fd5b506100786100e2565b005b34801561008657600080fd5b5061008f61010a565b60405161009c9190610341565b60405180910390f35b3480156100b157600080fd5b506100cc60048036038101906100c7919061038d565b610133565b005b6100d66101b6565b6100e06000610234565b565b6100ea6101b6565b6100f261010a565b73ffffffffffffffffffffffffffffffffffffffff16ff5b60008060009054906101000a900473ffffffffffffffffffffffffffffffffffffffff16905090565b61013b6101b6565b600073ffffffffffffffffffffffffffffffffffffffff168173ffffffffffffffffffffffffffffffffffffffff16036101aa576040517f08c379a00000000000000000000000000000000000000000000000000000000081526004016101a19061043d565b60405180910390fd5b6101b381610234565b50565b6101be6102f8565b73ffffffffffffffffffffffffffffffffffffffff166101dc61010a565b73ffffffffffffffffffffffffffffffffffffffff1614610232576040517f08c379a0000000000000000000000000000000000000000000000000000000008152600401610229906104a9565b60405180910390fd5b565b60008060009054906101000a900473ffffffffffffffffffffffffffffffffffffffff169050816000806101000a81548173ffffffffffffffffffffffffffffffffffffffff021916908373ffffffffffffffffffffffffffffffffffffffff1602179055508173ffffffffffffffffffffffffffffffffffffffff168173ffffffffffffffffffffffffffffffffffffffff167f8be0079c531659141344cd1fd0a4f28419497f9722a3daafe3b4186f6b6457e060405160405180910390a35050565b600033905090565b600073ffffffffffffffffffffffffffffffffffffffff82169050919050565b600061032b82610300565b9050919050565b61033b81610320565b82525050565b60006020820190506103566000830184610332565b92915050565b600080fd5b61036a81610320565b811461037557600080fd5b50565b60008135905061038781610361565b92915050565b6000602082840312156103a3576103a261035c565b5b60006103b184828501610378565b91505092915050565b600082825260208201905092915050565b7f4f776e61626c653a206e6577206f776e657220697320746865207a65726f206160008201527f6464726573730000000000000000000000000000000000000000000000000000602082015250565b60006104276026836103ba565b9150610432826103cb565b604082019050919050565b600060208201905081810360008301526104568161041a565b9050919050565b7f4f776e61626c653a2063616c6c6572206973206e6f7420746865206f776e6572600082015250565b60006104936020836103ba565b915061049e8261045d565b602082019050919050565b600060208201905081810360008301526104c281610486565b905091905056fea2646970667358221220863e155a39744a823c8cc8828d99594d2db5e711bd947a7786458530b17afe3d64736f6c63430008130033",
    "immutableReferences": {},
    "source": "// SPDX-License-Identifier: MIT\r\npragma solidity 0.8.19;\r\n\r\nimport \"../node_modules/@openzeppelin/contracts/access/Ownable.sol\";\r\n\r\n// NOTE: Metamorphic malware contract.\r\ncontract Target is Ownable {\r\n    constructor(address creator) {\r\n        _transferOwnership(creator); // NOTE: Transfering ownership from the 'Proxy' contract to the 'Creator' contract owned by the hacker.\r\n    }\r\n\r\n    receive() external payable {}\r\n\r\n    fallback() external payable {}\r\n\r\n    function destroy() external onlyOwner {\r\n        selfdestruct(payable(owner()));\r\n    }\r\n}\r\n\r\ncontract Proxy is Ownable {\r\n    Target private _target;\r\n\r\n    event CreateTarget(address addressTarget);\r\n    event DestroyTarget(address addressTarget);\r\n\r\n    constructor() {} // NOTE: 'Ownable' will set the 'Creator' contract owned by the hacker as the 'Proxy' contract owner.\r\n\r\n    function createTarget() external onlyOwner returns (Target) {\r\n        _target = new Target(owner()); // NOTE: Passing down the 'Creator' contract address.\r\n        return _target;\r\n    }\r\n\r\n    function destroy() external onlyOwner {\r\n        selfdestruct(payable(owner()));\r\n    }\r\n}\r\n\r\ncontract Creator is Ownable {\r\n    Proxy private _proxy;\r\n    Target private _target;\r\n\r\n    event CreateProxy(address addressProxy);\r\n    event DestroyProxy(address addressProxy);\r\n    event CreateTarget(address addressTarget);\r\n    event DestroyTarget(address addressTarget);\r\n\r\n    constructor() {} // NOTE: 'Ownable' will set the caller (hacker) as the 'Creator' contract owner.\r\n\r\n    function create(uint256 salt) external onlyOwner {\r\n        _proxy = new Proxy{salt: bytes32(salt)}();\r\n        emit CreateProxy(address(_proxy));\r\n        _target = _proxy.createTarget();\r\n        emit CreateTarget(address(_target));\r\n    }\r\n\r\n    function destroy() external onlyOwner {\r\n        emit DestroyTarget(address(_target));\r\n        _target.destroy();\r\n        emit DestroyProxy(address(_proxy));\r\n        _proxy.destroy();\r\n    }\r\n}\r\n",
    "sourcePath": "C:\\Users\\W11BB\\Desktop\\github_my\\solidity-learning\\Metamorphic\\contracts\\MetamorphicBasic.sol",
    "compiler": {
        "name": "solc",
        "version": "0.8.19+commit.7dd6d404.Emscripten.clang"
    },
    "schemaVersion": "3.4.16",
    "updatedAt": "2024-04-09T16:44:01.595Z",
    "devdoc": {
        "kind": "dev",
        "methods": {
            "owner()": {
                "details": "Returns the address of the current owner."
            },
            "renounceOwnership()": {
                "details": "Leaves the contract without owner. It will not be possible to call `onlyOwner` functions. Can only be called by the current owner. NOTE: Renouncing ownership will leave the contract without an owner, thereby disabling any functionality that is only available to the owner."
            },
            "transferOwnership(address)": {
                "details": "Transfers ownership of the contract to a new account (`newOwner`). Can only be called by the current owner."
            }
        },
        "version": 1
    },
    "userdoc": {
        "kind": "user",
        "methods": {},
        "version": 1
    }
}